{
    "txid": "8745aa33e13ea259128510cf4130735f2befa4770dec9e1a5d7ba2125fe6040a",
    "version": 1,
    "type": 0,
    "size": 201,
    "locktime": 0,
    "vin": [
        {
            "txid": "5897de6bd6027a475eadd57019d4e6872c396d0716c4875a5f1a6fcfdf385c1f",
            "vout": 0,
            "scriptSig": {
                "asm": "",
                "hex": ""
            },
            "sequence": 4294967295
        },
        {
            "txid": "bf829c6bcf84579331337659d31f89dfd138f7f7785802d5501c92333145ca7c",
            "vout": 18,
            "scriptSig": {
                "asm": "",
                "hex": ""
            },
            "sequence": 4294967295
        },
        {
            "txid": "22a6f904655d53ae2ff70e701a0bbd90aa3975c0f40bfc6cc996a9049e31cdfc",
            "vout": 1,
            "scriptSig": {
                "asm": "",
                "hex": ""
            },
            "sequence": 4294967295
        }
    ],
    "vout": [
        {
            "value": 0.18,
            "n": 0,
            "scriptPubKey": {
                "asm": "OP_DUP OP_HASH160 6c772e9cf96371bba3da8cb733da70a2fcf20078 OP_EQUALVERIFY OP_CHECKSIG",
                "hex": "76a9146c772e9cf96371bba3da8cb733da70a2fcf2007888ac",
                "reqSigs": 1,
                "type": "pubkeyhash",
                "addresses": [
                    "PJUgucAWpUERqJfry7e5eeGkCyz2RJun4p"
                ]
            }
        },
        {
            "value": 4.00,
            "n": 1,
            "scriptPubKey": {
                "asm": "OP_DUP OP_HASH160 8fd139bb39ced713f231c58a4d07bf6954d1c201 OP_EQUALVERIFY OP_CHECKSIG",
                "hex": "76a9148fd139bb39ced713f231c58a4d07bf6954d1c20188ac",
                "reqSigs": 1,
                "type": "pubkeyhash",
                "addresses": [
                    "PMhcReZQJ7mQmLE7FVpFBwekPhzEkR6bvS"
                ]
            }
        }
    ],
    "hex": "01000000031f5c38dfcf6f1a5f5a87c416076d392c87e6d41970d5ad5e477a02d66bde97580000000000ffffffff7cca453133921c50d5025878f7f738d1df891fd359763331935784cf6b9c82bf1200000000fffffffffccd319e04a996c96cfc0bf4c07539aa90bd0b1a700ef72fae535d6504f9a6220100000000ffffffff0280a81201000000001976a9146c772e9cf96371bba3da8cb733da70a2fcf2007888ac0084d717000000001976a9148fd139bb39ced713f231c58a4d07bf6954d1c20188ac00000000"
}
